{
  "contractName": "TournamentV1",
  "abi": [
    {
      "inputs": [
        {
          "internalType": "address",
          "name": "_president",
          "type": "address"
        }
      ],
      "stateMutability": "nonpayable",
      "type": "constructor"
    },
    {
      "anonymous": false,
      "inputs": [
        {
          "indexed": true,
          "internalType": "uint256",
          "name": "matchId",
          "type": "uint256"
        },
        {
          "indexed": true,
          "internalType": "address",
          "name": "sender",
          "type": "address"
        },
        {
          "indexed": false,
          "internalType": "uint32",
          "name": "score",
          "type": "uint32"
        },
        {
          "indexed": false,
          "internalType": "uint256",
          "name": "amount",
          "type": "uint256"
        }
      ],
      "name": "BetScore",
      "type": "event"
    },
    {
      "anonymous": false,
      "inputs": [
        {
          "indexed": true,
          "internalType": "uint256",
          "name": "matchId",
          "type": "uint256"
        },
        {
          "indexed": true,
          "internalType": "address",
          "name": "sender",
          "type": "address"
        },
        {
          "indexed": false,
          "internalType": "uint256",
          "name": "amount",
          "type": "uint256"
        }
      ],
      "name": "Claim",
      "type": "event"
    },
    {
      "anonymous": false,
      "inputs": [
        {
          "indexed": false,
          "internalType": "uint256",
          "name": "amount",
          "type": "uint256"
        }
      ],
      "name": "ClaimTreasury",
      "type": "event"
    },
    {
      "anonymous": false,
      "inputs": [
        {
          "indexed": true,
          "internalType": "uint256",
          "name": "matchId",
          "type": "uint256"
        },
        {
          "indexed": true,
          "internalType": "address",
          "name": "umpire",
          "type": "address"
        },
        {
          "indexed": false,
          "internalType": "uint256",
          "name": "deadline",
          "type": "uint256"
        }
      ],
      "name": "DeadlineUpdated",
      "type": "event"
    },
    {
      "anonymous": false,
      "inputs": [
        {
          "indexed": true,
          "internalType": "uint256",
          "name": "matchId",
          "type": "uint256"
        },
        {
          "indexed": true,
          "internalType": "address",
          "name": "umpire",
          "type": "address"
        },
        {
          "indexed": false,
          "internalType": "uint32",
          "name": "winningScore",
          "type": "uint32"
        },
        {
          "indexed": false,
          "internalType": "uint256",
          "name": "rewardAmount",
          "type": "uint256"
        },
        {
          "indexed": false,
          "internalType": "uint256",
          "name": "treasuryAmount",
          "type": "uint256"
        }
      ],
      "name": "MatchCompleted",
      "type": "event"
    },
    {
      "anonymous": false,
      "inputs": [
        {
          "indexed": true,
          "internalType": "uint256",
          "name": "matchId",
          "type": "uint256"
        },
        {
          "indexed": true,
          "internalType": "address",
          "name": "umpire",
          "type": "address"
        },
        {
          "indexed": false,
          "internalType": "string",
          "name": "uri",
          "type": "string"
        },
        {
          "indexed": false,
          "internalType": "uint32",
          "name": "minScore",
          "type": "uint32"
        },
        {
          "indexed": false,
          "internalType": "uint32",
          "name": "scoreMultiple",
          "type": "uint32"
        },
        {
          "indexed": false,
          "internalType": "uint8",
          "name": "rewardRate",
          "type": "uint8"
        },
        {
          "indexed": false,
          "internalType": "uint256",
          "name": "deadline",
          "type": "uint256"
        }
      ],
      "name": "MatchCreated",
      "type": "event"
    },
    {
      "anonymous": false,
      "inputs": [
        {
          "indexed": true,
          "internalType": "uint256",
          "name": "matchId",
          "type": "uint256"
        },
        {
          "indexed": true,
          "internalType": "address",
          "name": "umpire",
          "type": "address"
        }
      ],
      "name": "MatchForfeited",
      "type": "event"
    },
    {
      "anonymous": false,
      "inputs": [
        {
          "indexed": false,
          "internalType": "uint256",
          "name": "minBetAmount",
          "type": "uint256"
        }
      ],
      "name": "MinimumBetAmountUpdated",
      "type": "event"
    },
    {
      "anonymous": false,
      "inputs": [
        {
          "indexed": false,
          "internalType": "address",
          "name": "account",
          "type": "address"
        }
      ],
      "name": "Paused",
      "type": "event"
    },
    {
      "anonymous": false,
      "inputs": [
        {
          "indexed": true,
          "internalType": "uint256",
          "name": "matchId",
          "type": "uint256"
        },
        {
          "indexed": true,
          "internalType": "address",
          "name": "sender",
          "type": "address"
        },
        {
          "indexed": false,
          "internalType": "uint256",
          "name": "amount",
          "type": "uint256"
        }
      ],
      "name": "Refund",
      "type": "event"
    },
    {
      "anonymous": false,
      "inputs": [
        {
          "indexed": true,
          "internalType": "uint256",
          "name": "matchId",
          "type": "uint256"
        },
        {
          "indexed": false,
          "internalType": "uint8",
          "name": "rewardRate",
          "type": "uint8"
        }
      ],
      "name": "RewardRateUpdated",
      "type": "event"
    },
    {
      "anonymous": false,
      "inputs": [
        {
          "indexed": true,
          "internalType": "bytes32",
          "name": "role",
          "type": "bytes32"
        },
        {
          "indexed": true,
          "internalType": "bytes32",
          "name": "previousAdminRole",
          "type": "bytes32"
        },
        {
          "indexed": true,
          "internalType": "bytes32",
          "name": "newAdminRole",
          "type": "bytes32"
        }
      ],
      "name": "RoleAdminChanged",
      "type": "event"
    },
    {
      "anonymous": false,
      "inputs": [
        {
          "indexed": true,
          "internalType": "bytes32",
          "name": "role",
          "type": "bytes32"
        },
        {
          "indexed": true,
          "internalType": "address",
          "name": "account",
          "type": "address"
        },
        {
          "indexed": true,
          "internalType": "address",
          "name": "sender",
          "type": "address"
        }
      ],
      "name": "RoleGranted",
      "type": "event"
    },
    {
      "anonymous": false,
      "inputs": [
        {
          "indexed": true,
          "internalType": "bytes32",
          "name": "role",
          "type": "bytes32"
        },
        {
          "indexed": true,
          "internalType": "address",
          "name": "account",
          "type": "address"
        },
        {
          "indexed": true,
          "internalType": "address",
          "name": "sender",
          "type": "address"
        }
      ],
      "name": "RoleRevoked",
      "type": "event"
    },
    {
      "anonymous": false,
      "inputs": [
        {
          "indexed": false,
          "internalType": "address",
          "name": "account",
          "type": "address"
        }
      ],
      "name": "Unpaused",
      "type": "event"
    },
    {
      "inputs": [],
      "name": "DEFAULT_ADMIN_ROLE",
      "outputs": [
        {
          "internalType": "bytes32",
          "name": "",
          "type": "bytes32"
        }
      ],
      "stateMutability": "view",
      "type": "function",
      "constant": true
    },
    {
      "inputs": [],
      "name": "SCORER_ROLE",
      "outputs": [
        {
          "internalType": "bytes32",
          "name": "",
          "type": "bytes32"
        }
      ],
      "stateMutability": "view",
      "type": "function",
      "constant": true
    },
    {
      "inputs": [],
      "name": "TOTAL_RATE",
      "outputs": [
        {
          "internalType": "uint8",
          "name": "",
          "type": "uint8"
        }
      ],
      "stateMutability": "view",
      "type": "function",
      "constant": true
    },
    {
      "inputs": [],
      "name": "UMPIRE_ROLE",
      "outputs": [
        {
          "internalType": "bytes32",
          "name": "",
          "type": "bytes32"
        }
      ],
      "stateMutability": "view",
      "type": "function",
      "constant": true
    },
    {
      "inputs": [],
      "name": "acceptPresidency",
      "outputs": [],
      "stateMutability": "nonpayable",
      "type": "function"
    },
    {
      "inputs": [
        {
          "internalType": "bytes32",
          "name": "role",
          "type": "bytes32"
        }
      ],
      "name": "getRoleAdmin",
      "outputs": [
        {
          "internalType": "bytes32",
          "name": "",
          "type": "bytes32"
        }
      ],
      "stateMutability": "view",
      "type": "function",
      "constant": true
    },
    {
      "inputs": [
        {
          "internalType": "bytes32",
          "name": "role",
          "type": "bytes32"
        },
        {
          "internalType": "uint256",
          "name": "index",
          "type": "uint256"
        }
      ],
      "name": "getRoleMember",
      "outputs": [
        {
          "internalType": "address",
          "name": "",
          "type": "address"
        }
      ],
      "stateMutability": "view",
      "type": "function",
      "constant": true
    },
    {
      "inputs": [
        {
          "internalType": "bytes32",
          "name": "role",
          "type": "bytes32"
        }
      ],
      "name": "getRoleMemberCount",
      "outputs": [
        {
          "internalType": "uint256",
          "name": "",
          "type": "uint256"
        }
      ],
      "stateMutability": "view",
      "type": "function",
      "constant": true
    },
    {
      "inputs": [
        {
          "internalType": "bytes32",
          "name": "role",
          "type": "bytes32"
        },
        {
          "internalType": "address",
          "name": "account",
          "type": "address"
        }
      ],
      "name": "grantRole",
      "outputs": [],
      "stateMutability": "nonpayable",
      "type": "function"
    },
    {
      "inputs": [
        {
          "internalType": "bytes32",
          "name": "role",
          "type": "bytes32"
        },
        {
          "internalType": "address",
          "name": "account",
          "type": "address"
        }
      ],
      "name": "hasRole",
      "outputs": [
        {
          "internalType": "bool",
          "name": "",
          "type": "bool"
        }
      ],
      "stateMutability": "view",
      "type": "function",
      "constant": true
    },
    {
      "inputs": [
        {
          "internalType": "uint256",
          "name": "",
          "type": "uint256"
        }
      ],
      "name": "matches",
      "outputs": [
        {
          "internalType": "string",
          "name": "uri",
          "type": "string"
        },
        {
          "internalType": "uint32",
          "name": "minScore",
          "type": "uint32"
        },
        {
          "internalType": "uint32",
          "name": "scoreMultiple",
          "type": "uint32"
        },
        {
          "internalType": "uint32",
          "name": "winningScore",
          "type": "uint32"
        },
        {
          "internalType": "uint8",
          "name": "rewardRate",
          "type": "uint8"
        },
        {
          "internalType": "enum TournamentV1.MatchStage",
          "name": "stage",
          "type": "uint8"
        },
        {
          "internalType": "uint256",
          "name": "deadline",
          "type": "uint256"
        },
        {
          "internalType": "uint256",
          "name": "totalAmount",
          "type": "uint256"
        },
        {
          "internalType": "uint256",
          "name": "rewardAmount",
          "type": "uint256"
        }
      ],
      "stateMutability": "view",
      "type": "function",
      "constant": true
    },
    {
      "inputs": [],
      "name": "minBetAmount",
      "outputs": [
        {
          "internalType": "uint256",
          "name": "",
          "type": "uint256"
        }
      ],
      "stateMutability": "view",
      "type": "function",
      "constant": true
    },
    {
      "inputs": [
        {
          "internalType": "address",
          "name": "_account",
          "type": "address"
        }
      ],
      "name": "offerPresidency",
      "outputs": [],
      "stateMutability": "nonpayable",
      "type": "function"
    },
    {
      "inputs": [],
      "name": "paused",
      "outputs": [
        {
          "internalType": "bool",
          "name": "",
          "type": "bool"
        }
      ],
      "stateMutability": "view",
      "type": "function",
      "constant": true
    },
    {
      "inputs": [],
      "name": "president",
      "outputs": [
        {
          "internalType": "address",
          "name": "",
          "type": "address"
        }
      ],
      "stateMutability": "view",
      "type": "function",
      "constant": true
    },
    {
      "inputs": [
        {
          "internalType": "bytes32",
          "name": "role",
          "type": "bytes32"
        },
        {
          "internalType": "address",
          "name": "account",
          "type": "address"
        }
      ],
      "name": "renounceRole",
      "outputs": [],
      "stateMutability": "nonpayable",
      "type": "function"
    },
    {
      "inputs": [
        {
          "internalType": "bytes32",
          "name": "role",
          "type": "bytes32"
        },
        {
          "internalType": "address",
          "name": "account",
          "type": "address"
        }
      ],
      "name": "revokeRole",
      "outputs": [],
      "stateMutability": "nonpayable",
      "type": "function"
    },
    {
      "inputs": [],
      "name": "rewardRate",
      "outputs": [
        {
          "internalType": "uint8",
          "name": "",
          "type": "uint8"
        }
      ],
      "stateMutability": "view",
      "type": "function",
      "constant": true
    },
    {
      "inputs": [
        {
          "internalType": "bytes4",
          "name": "interfaceId",
          "type": "bytes4"
        }
      ],
      "name": "supportsInterface",
      "outputs": [
        {
          "internalType": "bool",
          "name": "",
          "type": "bool"
        }
      ],
      "stateMutability": "view",
      "type": "function",
      "constant": true
    },
    {
      "inputs": [],
      "name": "treasuryAmount",
      "outputs": [
        {
          "internalType": "uint256",
          "name": "",
          "type": "uint256"
        }
      ],
      "stateMutability": "view",
      "type": "function",
      "constant": true
    },
    {
      "inputs": [
        {
          "internalType": "string",
          "name": "_uri",
          "type": "string"
        },
        {
          "internalType": "uint32",
          "name": "_minScore",
          "type": "uint32"
        },
        {
          "internalType": "uint32",
          "name": "_scoreMultiple",
          "type": "uint32"
        },
        {
          "internalType": "uint256",
          "name": "_deadline",
          "type": "uint256"
        }
      ],
      "name": "createMatch",
      "outputs": [
        {
          "internalType": "uint256",
          "name": "",
          "type": "uint256"
        }
      ],
      "stateMutability": "nonpayable",
      "type": "function"
    },
    {
      "inputs": [
        {
          "internalType": "uint256",
          "name": "_matchId",
          "type": "uint256"
        },
        {
          "internalType": "uint256",
          "name": "_deadline",
          "type": "uint256"
        }
      ],
      "name": "updateDeadline",
      "outputs": [],
      "stateMutability": "nonpayable",
      "type": "function"
    },
    {
      "inputs": [
        {
          "internalType": "uint256",
          "name": "_matchId",
          "type": "uint256"
        }
      ],
      "name": "forfeitMatch",
      "outputs": [],
      "stateMutability": "nonpayable",
      "type": "function"
    },
    {
      "inputs": [
        {
          "internalType": "uint256",
          "name": "_matchId",
          "type": "uint256"
        },
        {
          "internalType": "uint32",
          "name": "_winningScore",
          "type": "uint32"
        }
      ],
      "name": "endMatch",
      "outputs": [],
      "stateMutability": "nonpayable",
      "type": "function"
    },
    {
      "inputs": [
        {
          "internalType": "uint256",
          "name": "_matchId",
          "type": "uint256"
        },
        {
          "internalType": "uint32",
          "name": "_score",
          "type": "uint32"
        }
      ],
      "name": "betScore",
      "outputs": [],
      "stateMutability": "payable",
      "type": "function",
      "payable": true
    },
    {
      "inputs": [
        {
          "internalType": "uint256",
          "name": "_matchId",
          "type": "uint256"
        }
      ],
      "name": "claim",
      "outputs": [],
      "stateMutability": "nonpayable",
      "type": "function"
    },
    {
      "inputs": [
        {
          "internalType": "uint256",
          "name": "_matchId",
          "type": "uint256"
        },
        {
          "internalType": "address",
          "name": "_user",
          "type": "address"
        }
      ],
      "name": "claimable",
      "outputs": [
        {
          "internalType": "bool",
          "name": "",
          "type": "bool"
        }
      ],
      "stateMutability": "view",
      "type": "function",
      "constant": true
    },
    {
      "inputs": [
        {
          "internalType": "uint256",
          "name": "_matchId",
          "type": "uint256"
        },
        {
          "internalType": "uint32",
          "name": "_score",
          "type": "uint32"
        }
      ],
      "name": "getRewardMultiplier",
      "outputs": [
        {
          "internalType": "uint256",
          "name": "",
          "type": "uint256"
        }
      ],
      "stateMutability": "view",
      "type": "function",
      "constant": true
    },
    {
      "inputs": [
        {
          "internalType": "uint256",
          "name": "_matchId",
          "type": "uint256"
        }
      ],
      "name": "isHouseWin",
      "outputs": [
        {
          "internalType": "bool",
          "name": "",
          "type": "bool"
        }
      ],
      "stateMutability": "view",
      "type": "function",
      "constant": true
    },
    {
      "inputs": [
        {
          "internalType": "uint256",
          "name": "_matchId",
          "type": "uint256"
        }
      ],
      "name": "refund",
      "outputs": [],
      "stateMutability": "nonpayable",
      "type": "function"
    },
    {
      "inputs": [],
      "name": "getMatchCount",
      "outputs": [
        {
          "internalType": "uint256",
          "name": "",
          "type": "uint256"
        }
      ],
      "stateMutability": "view",
      "type": "function",
      "constant": true
    },
    {
      "inputs": [
        {
          "internalType": "uint256",
          "name": "_matchId",
          "type": "uint256"
        },
        {
          "internalType": "uint256",
          "name": "_score",
          "type": "uint256"
        }
      ],
      "name": "getBetsAtScore",
      "outputs": [
        {
          "internalType": "uint256",
          "name": "",
          "type": "uint256"
        }
      ],
      "stateMutability": "view",
      "type": "function",
      "constant": true
    },
    {
      "inputs": [
        {
          "internalType": "uint256",
          "name": "_matchId",
          "type": "uint256"
        }
      ],
      "name": "isDeadlinePassed",
      "outputs": [
        {
          "internalType": "bool",
          "name": "",
          "type": "bool"
        }
      ],
      "stateMutability": "view",
      "type": "function",
      "constant": true
    },
    {
      "inputs": [
        {
          "internalType": "address",
          "name": "_user",
          "type": "address"
        },
        {
          "internalType": "uint256",
          "name": "_cursor",
          "type": "uint256"
        },
        {
          "internalType": "uint256",
          "name": "_size",
          "type": "uint256"
        }
      ],
      "name": "getUserMatches",
      "outputs": [
        {
          "internalType": "uint256[]",
          "name": "",
          "type": "uint256[]"
        },
        {
          "internalType": "uint256",
          "name": "",
          "type": "uint256"
        }
      ],
      "stateMutability": "view",
      "type": "function",
      "constant": true
    },
    {
      "inputs": [
        {
          "internalType": "uint8",
          "name": "_rewardRate",
          "type": "uint8"
        }
      ],
      "name": "setRewardRate",
      "outputs": [],
      "stateMutability": "nonpayable",
      "type": "function"
    },
    {
      "inputs": [
        {
          "internalType": "uint256",
          "name": "_minBetAmount",
          "type": "uint256"
        }
      ],
      "name": "setMinBetAmount",
      "outputs": [],
      "stateMutability": "nonpayable",
      "type": "function"
    },
    {
      "inputs": [
        {
          "internalType": "uint256",
          "name": "_amount",
          "type": "uint256"
        }
      ],
      "name": "claimTreasury",
      "outputs": [],
      "stateMutability": "nonpayable",
      "type": "function"
    },
    {
      "inputs": [],
      "name": "pause",
      "outputs": [],
      "stateMutability": "nonpayable",
      "type": "function"
    },
    {
      "inputs": [],
      "name": "unpause",
      "outputs": [],
      "stateMutability": "nonpayable",
      "type": "function"
    }
  ],
  "bytecode": "0x6080604052605a600860006101000a81548160ff021916908360ff160217905550662386f26fc100006009553480156200003857600080fd5b5060405162005f8838038062005f8883398181016040528101906200005e9190620003e9565b806000600260006101000a81548160ff02191690831515021790555080600260016101000a81548173ffffffffffffffffffffffffffffffffffffffff021916908373ffffffffffffffffffffffffffffffffffffffff160217905550620000d06000801b826200013c60201b60201c565b620001027f66778c815bca9067617f4f64e430a0a08f70ab5dd2654c328c1f658d54a8c833826200013c60201b60201c565b620001347f7f3f5c26f2e002e717c4feeca3fac851759df70cd9d703d83098f12a7ad024ca826200013c60201b60201c565b505062000463565b6200015382826200018460201b6200333f1760201c565b6200017f81600160008581526020019081526020016000206200019a60201b6200334d1790919060201c565b505050565b620001968282620001d260201b60201c565b5050565b6000620001ca836000018373ffffffffffffffffffffffffffffffffffffffff1660001b620002c360201b60201c565b905092915050565b620001e482826200033d60201b60201c565b620002bf57600160008084815260200190815260200160002060000160008373ffffffffffffffffffffffffffffffffffffffff1673ffffffffffffffffffffffffffffffffffffffff16815260200190815260200160002060006101000a81548160ff02191690831515021790555062000264620003a760201b60201c565b73ffffffffffffffffffffffffffffffffffffffff168173ffffffffffffffffffffffffffffffffffffffff16837f2f8788117e7eff1d82e926ec794901d17c78024a50270940304540a733656f0d60405160405180910390a45b5050565b6000620002d78383620003af60201b60201c565b6200033257826000018290806001815401808255809150506001900390600052602060002001600090919091909150558260000180549050836001016000848152602001908152602001600020819055506001905062000337565b600090505b92915050565b600080600084815260200190815260200160002060000160008373ffffffffffffffffffffffffffffffffffffffff1673ffffffffffffffffffffffffffffffffffffffff16815260200190815260200160002060009054906101000a900460ff16905092915050565b600033905090565b600080836001016000848152602001908152602001600020541415905092915050565b600081519050620003e38162000449565b92915050565b600060208284031215620003fc57600080fd5b60006200040c84828501620003d2565b91505092915050565b6000620004228262000429565b9050919050565b600073ffffffffffffffffffffffffffffffffffffffff82169050919050565b620004548162000415565b81146200046057600080fd5b50565b615b1580620004736000396000f3fe60806040526004361061022f5760003560e01c806376d480ff1161012e578063a217fddf116100ab578063d547741f1161006f578063d547741f1461087a578063dd132a7a146108a3578063ecf1d9f9146108bf578063fa40df0c146108fd578063fa968eea146109265761022f565b8063a217fddf1461077f578063a4d6d495146107aa578063a7585133146107d5578063b29c299b14610812578063ca15c8731461083d5761022f565b80638c4f7dae116100f25780638c4f7dae146106745780639010d07c1461069f57806391d14854146106dc5780639f9357d114610719578063a0c7f71c146107425761022f565b806376d480ff146105b75780637b0a47ee146105e05780638456cb591461060b578063899b184f146106225780638a0142b51461064b5761022f565b806336568abe116101bc5780634768d4ef116101805780634768d4ef146104b65780635c975abb146104fb57806362cc05fd1461052657806363ca345e146105515780636c1885931461058e5761022f565b806336568abe146103e5578063368acb091461040e578063379607f5146104395780633c80fa23146104625780633f4ba83a1461049f5761022f565b80631e63581c116102035780631e63581c14610314578063248a9ca31461032b578063278ecde1146103685780632f2ff15d14610391578063324a1376146103ba5761022f565b8062f7df8b1461023457806301ffc9a71461027157806304f70627146102ae57806314b12872146102d7575b600080fd5b34801561024057600080fd5b5061025b600480360381019061025691906142d0565b610951565b6040516102689190614a70565b60405180910390f35b34801561027d57600080fd5b5061029860048036038101906102939190614227565b6109cd565b6040516102a59190614a70565b60405180910390f35b3480156102ba57600080fd5b506102d560048036038101906102d0919061410e565b610a47565b005b3480156102e357600080fd5b506102fe60048036038101906102f99190614371565b610bb3565b60405161030b9190614f56565b60405180910390f35b34801561032057600080fd5b50610329610cea565b005b34801561033757600080fd5b50610352600480360381019061034d9190614186565b610e21565b60405161035f9190614a8b565b60405180910390f35b34801561037457600080fd5b5061038f600480360381019061038a91906142d0565b610e40565b005b34801561039d57600080fd5b506103b860048036038101906103b391906141af565b611202565b005b3480156103c657600080fd5b506103cf611236565b6040516103dc9190614a25565b60405180910390f35b3480156103f157600080fd5b5061040c600480360381019061040791906141af565b61125c565b005b34801561041a57600080fd5b50610423611290565b6040516104309190614f56565b60405180910390f35b34801561044557600080fd5b50610460600480360381019061045b91906142d0565b611296565b005b34801561046e57600080fd5b5061048960048036038101906104849190614250565b6116e8565b6040516104969190614f56565b60405180910390f35b3480156104ab57600080fd5b506104b46119f4565b005b3480156104c257600080fd5b506104dd60048036038101906104d891906142d0565b611ab5565b6040516104f299989796959493929190614ac8565b60405180910390f35b34801561050757600080fd5b50610510611bd5565b60405161051d9190614a70565b60405180910390f35b34801561053257600080fd5b5061053b611bec565b6040516105489190614a8b565b60405180910390f35b34801561055d57600080fd5b5061057860048036038101906105739190614335565b611c10565b6040516105859190614f56565b60405180910390f35b34801561059a57600080fd5b506105b560048036038101906105b091906142d0565b611c42565b005b3480156105c357600080fd5b506105de60048036038101906105d99190614371565b611d5f565b005b3480156105ec57600080fd5b506105f5612128565b6040516106029190614fd1565b60405180910390f35b34801561061757600080fd5b5061062061213b565b005b34801561062e57600080fd5b5061064960048036038101906106449190614335565b6121fd565b005b34801561065757600080fd5b50610672600480360381019061066d91906142d0565b6123d1565b005b34801561068057600080fd5b506106896125ce565b6040516106969190614f56565b60405180910390f35b3480156106ab57600080fd5b506106c660048036038101906106c191906141eb565b6125df565b6040516106d39190614a25565b60405180910390f35b3480156106e857600080fd5b5061070360048036038101906106fe91906141af565b61260e565b6040516107109190614a70565b60405180910390f35b34801561072557600080fd5b50610740600480360381019061073b91906142d0565b612678565b005b34801561074e57600080fd5b50610769600480360381019061076491906142f9565b612812565b6040516107769190614a70565b60405180910390f35b34801561078b57600080fd5b506107946128cf565b6040516107a19190614a8b565b60405180910390f35b3480156107b657600080fd5b506107bf6128d6565b6040516107cc9190614a8b565b60405180910390f35b3480156107e157600080fd5b506107fc60048036038101906107f791906142d0565b6128fa565b6040516108099190614a70565b60405180910390f35b34801561081e57600080fd5b506108276129da565b6040516108349190614fd1565b60405180910390f35b34801561084957600080fd5b50610864600480360381019061085f9190614186565b6129df565b6040516108719190614f56565b60405180910390f35b34801561088657600080fd5b506108a1600480360381019061089c91906141af565b612a03565b005b6108bd60048036038101906108b89190614371565b612a37565b005b3480156108cb57600080fd5b506108e660048036038101906108e19190614137565b613003565b6040516108f4929190614a40565b60405180910390f35b34801561090957600080fd5b50610924600480360381019061091f91906143ad565b6131c7565b005b34801561093257600080fd5b5061093b613339565b6040516109489190614f56565b60405180910390f35b60008160008111801561096d5750610969600561337d565b8111155b6109ac576040517f08c379a00000000000000000000000000000000000000000000000000000000081526004016109a390614e16565b60405180910390fd5b60046000848152602001908152602001600020600201544211915050919050565b60007f5a05180f000000000000000000000000000000000000000000000000000000007bffffffffffffffffffffffffffffffffffffffffffffffffffffffff1916827bffffffffffffffffffffffffffffffffffffffffffffffffffffffff19161480610a405750610a3f8261338b565b5b9050919050565b610a4f613405565b73ffffffffffffffffffffffffffffffffffffffff16600260019054906101000a900473ffffffffffffffffffffffffffffffffffffffff1673ffffffffffffffffffffffffffffffffffffffff1614610ade576040517f08c379a0000000000000000000000000000000000000000000000000000000008152600401610ad590614f16565b60405180910390fd5b8073ffffffffffffffffffffffffffffffffffffffff16600260019054906101000a900473ffffffffffffffffffffffffffffffffffffffff1673ffffffffffffffffffffffffffffffffffffffff161415610b6f576040517f08c379a0000000000000000000000000000000000000000000000000000000008152600401610b6690614c76565b60405180910390fd5b80600360006101000a81548173ffffffffffffffffffffffffffffffffffffffff021916908373ffffffffffffffffffffffffffffffffffffffff16021790555050565b600082600081118015610bcf5750610bcb600561337d565b8111155b610c0e576040517f08c379a0000000000000000000000000000000000000000000000000000000008152600401610c0590614e16565b60405180910390fd5b60006004600086815260200190815260200160002090506000610c598260050160008763ffffffff16815260200190815260200160002054836003015461340d90919063ffffffff16565b90506000610c9a606460ff16610c8c85600101600c9054906101000a900460ff1660ff168561342390919063ffffffff16565b61343990919063ffffffff16565b9050610cde8360050160008863ffffffff16815260200190815260200160002054610cd06127108461342390919063ffffffff16565b61343990919063ffffffff16565b94505050505092915050565b600360009054906101000a900473ffffffffffffffffffffffffffffffffffffffff1673ffffffffffffffffffffffffffffffffffffffff163373ffffffffffffffffffffffffffffffffffffffff1614610d7a576040517f08c379a0000000000000000000000000000000000000000000000000000000008152600401610d7190614dd6565b60405180910390fd5b600360009054906101000a900473ffffffffffffffffffffffffffffffffffffffff16600260016101000a81548173ffffffffffffffffffffffffffffffffffffffff021916908373ffffffffffffffffffffffffffffffffffffffff1602179055506000600360006101000a81548173ffffffffffffffffffffffffffffffffffffffff021916908373ffffffffffffffffffffffffffffffffffffffff160217905550565b6000806000838152602001908152602001600020600101549050919050565b610e5f3373ffffffffffffffffffffffffffffffffffffffff1661344f565b15610e9f576040517f08c379a0000000000000000000000000000000000000000000000000000000008152600401610e9690614db6565b60405180910390fd5b3273ffffffffffffffffffffffffffffffffffffffff163373ffffffffffffffffffffffffffffffffffffffff1614610f0d576040517f08c379a0000000000000000000000000000000000000000000000000000000008152600401610f0490614ed6565b60405180910390fd5b80600081118015610f275750610f23600561337d565b8111155b610f66576040517f08c379a0000000000000000000000000000000000000000000000000000000008152600401610f5d90614e16565b60405180910390fd5b816003806003811115610fa2577f4e487b7100000000000000000000000000000000000000000000000000000000600052602160045260246000fd5b60046000848152602001908152602001600020600101600d9054906101000a900460ff166003811115610ffe577f4e487b7100000000000000000000000000000000000000000000000000000000600052602160045260246000fd5b1461103e576040517f08c379a000000000000000000000000000000000000000000000000000000000815260040161103590614cb6565b60405180910390fd5b600060066000868152602001908152602001600020600061105d613405565b73ffffffffffffffffffffffffffffffffffffffff1673ffffffffffffffffffffffffffffffffffffffff168152602001908152602001600020905060008160010154116110e0576040517f08c379a00000000000000000000000000000000000000000000000000000000081526004016110d790614bb6565b60405180910390fd5b8060000160009054906101000a900460ff1615611132576040517f08c379a000000000000000000000000000000000000000000000000000000000815260040161112990614c16565b60405180910390fd5b60018160000160006101000a81548160ff021916908315150217905550611157613405565b73ffffffffffffffffffffffffffffffffffffffff166108fc82600101549081150290604051600060405180830381858888f193505050501580156111a0573d6000803e3d6000fd5b506111a9613405565b73ffffffffffffffffffffffffffffffffffffffff16857f21e12a7cad0da5928167e1084ea4d5fdf8d9af66657a2543a9ac76a0ca08147783600101546040516111f39190614f56565b60405180910390a35050505050565b61120c8282613462565b611231816001600085815260200190815260200160002061334d90919063ffffffff16565b505050565b600260019054906101000a900473ffffffffffffffffffffffffffffffffffffffff1681565b611266828261348b565b61128b816001600085815260200190815260200160002061350e90919063ffffffff16565b505050565b600a5481565b6112b53373ffffffffffffffffffffffffffffffffffffffff1661344f565b156112f5576040517f08c379a00000000000000000000000000000000000000000000000000000000081526004016112ec90614db6565b60405180910390fd5b3273ffffffffffffffffffffffffffffffffffffffff163373ffffffffffffffffffffffffffffffffffffffff1614611363576040517f08c379a000000000000000000000000000000000000000000000000000000000815260040161135a90614ed6565b60405180910390fd5b8060008111801561137d5750611379600561337d565b8111155b6113bc576040517f08c379a00000000000000000000000000000000000000000000000000000000081526004016113b390614e16565b60405180910390fd5b8160028060038111156113f8577f4e487b7100000000000000000000000000000000000000000000000000000000600052602160045260246000fd5b60046000848152602001908152602001600020600101600d9054906101000a900460ff166003811115611454577f4e487b7100000000000000000000000000000000000000000000000000000000600052602160045260246000fd5b14611494576040517f08c379a000000000000000000000000000000000000000000000000000000000815260040161148b90614cb6565b60405180910390fd5b60006006600086815260200190815260200160002060006114b3613405565b73ffffffffffffffffffffffffffffffffffffffff1673ffffffffffffffffffffffffffffffffffffffff16815260200190815260200160002090508060000160009054906101000a900460ff1615611541576040517f08c379a000000000000000000000000000000000000000000000000000000000815260040161153890614d96565b60405180910390fd5b6115528561154d613405565b612812565b611591576040517f08c379a000000000000000000000000000000000000000000000000000000000815260040161158890614df6565b60405180910390fd5b6000600460008781526020019081526020016000209050600061161c6116098360050160008560010160089054906101000a900463ffffffff1663ffffffff168152602001908152602001600020546115fb8560040154876001015461342390919063ffffffff16565b61343990919063ffffffff16565b846001015461353e90919063ffffffff16565b905060018360000160006101000a81548160ff021916908315150217905550611643613405565b73ffffffffffffffffffffffffffffffffffffffff166108fc829081150290604051600060405180830381858888f19350505050158015611688573d6000803e3d6000fd5b50611691613405565b73ffffffffffffffffffffffffffffffffffffffff16877f3ed1528b0fdc7c5207c1bf935e34a667e13656b9ed165260c522be0bc544f303836040516116d79190614f56565b60405180910390a350505050505050565b600061171b7f66778c815bca9067617f4f64e430a0a08f70ab5dd2654c328c1f658d54a8c833611716613405565b61260e565b61175a576040517f08c379a000000000000000000000000000000000000000000000000000000000815260040161175190614e96565b60405180910390fd5b600086869050116117a0576040517f08c379a000000000000000000000000000000000000000000000000000000000815260040161179790614c36565b60405180910390fd5b60008363ffffffff16116117e9576040517f08c379a00000000000000000000000000000000000000000000000000000000081526004016117e090614cd6565b60405180910390fd5b6000821161182c576040517f08c379a000000000000000000000000000000000000000000000000000000000815260040161182390614d16565b60405180910390fd5b6118366005613554565b6000611842600561337d565b90506000600460008381526020019081526020016000209050878782600001919061186e929190613fa3565b50858160010160006101000a81548163ffffffff021916908363ffffffff160217905550848160010160046101000a81548163ffffffff021916908363ffffffff16021790555083426118c19190615061565b8160020181905550600181600101600d6101000a81548160ff02191690836003811115611917577f4e487b7100000000000000000000000000000000000000000000000000000000600052602160045260246000fd5b0217905550600860009054906101000a900460ff1681600101600c6101000a81548160ff021916908360ff160217905550611950613405565b73ffffffffffffffffffffffffffffffffffffffff16827f85d162e7b0afd953cecf03b4263c3716fda8e799158e03c33cf1264624d80b37836000018460010160009054906101000a900463ffffffff168560010160049054906101000a900463ffffffff1686600101600c9054906101000a900460ff1687600201546040516119de959493929190614b5c565b60405180910390a3819250505095945050505050565b611a257f66778c815bca9067617f4f64e430a0a08f70ab5dd2654c328c1f658d54a8c833611a20613405565b61260e565b611a64576040517f08c379a0000000000000000000000000000000000000000000000000000000008152600401611a5b90614e96565b60405180910390fd5b611a6c611bd5565b611aab576040517f08c379a0000000000000000000000000000000000000000000000000000000008152600401611aa290614c56565b60405180910390fd5b611ab361356a565b565b6004602052806000526040600020600091509050806000018054611ad8906152c7565b80601f0160208091040260200160405190810160405280929190818152602001828054611b04906152c7565b8015611b515780601f10611b2657610100808354040283529160200191611b51565b820191906000526020600020905b815481529060010190602001808311611b3457829003601f168201915b5050505050908060010160009054906101000a900463ffffffff16908060010160049054906101000a900463ffffffff16908060010160089054906101000a900463ffffffff169080600101600c9054906101000a900460ff169080600101600d9054906101000a900460ff16908060020154908060030154908060040154905089565b6000600260009054906101000a900460ff16905090565b7f66778c815bca9067617f4f64e430a0a08f70ab5dd2654c328c1f658d54a8c83381565b600060046000848152602001908152602001600020600501600083815260200190815260200160002054905092915050565b611c4a613405565b73ffffffffffffffffffffffffffffffffffffffff16600260019054906101000a900473ffffffffffffffffffffffffffffffffffffffff1673ffffffffffffffffffffffffffffffffffffffff1614611cd9576040517f08c379a0000000000000000000000000000000000000000000000000000000008152600401611cd090614f16565b60405180910390fd5b60008111611d1c576040517f08c379a0000000000000000000000000000000000000000000000000000000008152600401611d1390614d76565b60405180910390fd5b806009819055507f998e655c98d8e4e42d46bb8ac94f89383dee5931159a247e80c58fdd2d4c350f600954604051611d549190614f56565b60405180910390a150565b611d907f7f3f5c26f2e002e717c4feeca3fac851759df70cd9d703d83098f12a7ad024ca611d8b613405565b61260e565b611dcf576040517f08c379a0000000000000000000000000000000000000000000000000000000008152600401611dc690614bd6565b60405180910390fd5b816001806003811115611e0b577f4e487b7100000000000000000000000000000000000000000000000000000000600052602160045260246000fd5b60046000848152602001908152602001600020600101600d9054906101000a900460ff166003811115611e67577f4e487b7100000000000000000000000000000000000000000000000000000000600052602160045260246000fd5b14611ea7576040517f08c379a0000000000000000000000000000000000000000000000000000000008152600401611e9e90614cb6565b60405180910390fd5b60008363ffffffff1611611ef0576040517f08c379a0000000000000000000000000000000000000000000000000000000008152600401611ee790614e76565b60405180910390fd5b600060046000868152602001908152602001600020905080600201544211611f4d576040517f08c379a0000000000000000000000000000000000000000000000000000000008152600401611f4490614c96565b60405180910390fd5b838160010160086101000a81548163ffffffff021916908363ffffffff160217905550600281600101600d6101000a81548160ff02191690836003811115611fbe577f4e487b7100000000000000000000000000000000000000000000000000000000600052602160045260246000fd5b02179055506000611fce866128fa565b15611fdf57816003015490506120a7565b60006120138360050160008863ffffffff16815260200190815260200160002054846003015461340d90919063ffffffff16565b9050612052606460ff1661204485600101600c9054906101000a900460ff1660ff168461342390919063ffffffff16565b61343990919063ffffffff16565b83600401819055506120a3606460ff1661209585600101600c9054906101000a900460ff1660646120839190615176565b60ff168461342390919063ffffffff16565b61343990919063ffffffff16565b9150505b6120bc81600a5461353e90919063ffffffff16565b600a819055506120ca613405565b73ffffffffffffffffffffffffffffffffffffffff16867fb13e20d35aa9cc5173db49c7b56611972a0463ed9fdd50467cbf0e8d020113848785600401548560405161211893929190614f9a565b60405180910390a3505050505050565b600860009054906101000a900460ff1681565b61216c7f66778c815bca9067617f4f64e430a0a08f70ab5dd2654c328c1f658d54a8c833612167613405565b61260e565b6121ab576040517f08c379a00000000000000000000000000000000000000000000000000000000081526004016121a290614e96565b60405180910390fd5b6121b3611bd5565b156121f3576040517f08c379a00000000000000000000000000000000000000000000000000000000081526004016121ea90614d36565b60405180910390fd5b6121fb61360c565b565b61222e7f66778c815bca9067617f4f64e430a0a08f70ab5dd2654c328c1f658d54a8c833612229613405565b61260e565b61226d576040517f08c379a000000000000000000000000000000000000000000000000000000000815260040161226490614e96565b60405180910390fd5b8160018060038111156122a9577f4e487b7100000000000000000000000000000000000000000000000000000000600052602160045260246000fd5b60046000848152602001908152602001600020600101600d9054906101000a900460ff166003811115612305577f4e487b7100000000000000000000000000000000000000000000000000000000600052602160045260246000fd5b14612345576040517f08c379a000000000000000000000000000000000000000000000000000000000815260040161233c90614cb6565b60405180910390fd5b600060046000868152602001908152602001600020905083426123689190615061565b8160020181905550612378613405565b73ffffffffffffffffffffffffffffffffffffffff16857f7b68ee3a2f02e31f31b7f681d3d24573fb7b369f7e48bbffee23447bc1d52e4983600201546040516123c29190614f56565b60405180910390a35050505050565b6124027f66778c815bca9067617f4f64e430a0a08f70ab5dd2654c328c1f658d54a8c8336123fd613405565b61260e565b612441576040517f08c379a000000000000000000000000000000000000000000000000000000000815260040161243890614e96565b60405180910390fd5b80600180600381111561247d577f4e487b7100000000000000000000000000000000000000000000000000000000600052602160045260246000fd5b60046000848152602001908152602001600020600101600d9054906101000a900460ff1660038111156124d9577f4e487b7100000000000000000000000000000000000000000000000000000000600052602160045260246000fd5b14612519576040517f08c379a000000000000000000000000000000000000000000000000000000000815260040161251090614cb6565b60405180910390fd5b600360046000858152602001908152602001600020600101600d6101000a81548160ff02191690836003811115612579577f4e487b7100000000000000000000000000000000000000000000000000000000600052602160045260246000fd5b0217905550612586613405565b73ffffffffffffffffffffffffffffffffffffffff16837f5e6d44101742585a96649a62d75df02e5e37141eb54bdc0cbd1a945209891e4060405160405180910390a3505050565b60006125da600561337d565b905090565b600061260682600160008681526020019081526020016000206136af90919063ffffffff16565b905092915050565b600080600084815260200190815260200160002060000160008373ffffffffffffffffffffffffffffffffffffffff1673ffffffffffffffffffffffffffffffffffffffff16815260200190815260200160002060009054906101000a900460ff16905092915050565b612680613405565b73ffffffffffffffffffffffffffffffffffffffff16600260019054906101000a900473ffffffffffffffffffffffffffffffffffffffff1673ffffffffffffffffffffffffffffffffffffffff161461270f576040517f08c379a000000000000000000000000000000000000000000000000000000000815260040161270690614f16565b60405180910390fd5b80600a541015612754576040517f08c379a000000000000000000000000000000000000000000000000000000000815260040161274b90614ef6565b60405180910390fd5b61276981600a5461340d90919063ffffffff16565b600a81905550600260019054906101000a900473ffffffffffffffffffffffffffffffffffffffff1673ffffffffffffffffffffffffffffffffffffffff166108fc829081150290604051600060405180830381858888f193505050501580156127d7573d6000803e3d6000fd5b507f609175abb7f12481e4f200d1ef4fc834e6caac3d9eadba42d664352f6d0932ca816040516128079190614f56565b60405180910390a150565b60008060046000858152602001908152602001600020905060006006600086815260200190815260200160002060008573ffffffffffffffffffffffffffffffffffffffff1673ffffffffffffffffffffffffffffffffffffffff1681526020019081526020016000209050600081600101541180156128c557508160010160089054906101000a900463ffffffff1663ffffffff168160000160019054906101000a900463ffffffff1663ffffffff16145b9250505092915050565b6000801b81565b7f7f3f5c26f2e002e717c4feeca3fac851759df70cd9d703d83098f12a7ad024ca81565b6000806004600084815260200190815260200160002090506002600381111561294c577f4e487b7100000000000000000000000000000000000000000000000000000000600052602160045260246000fd5b81600101600d9054906101000a900460ff166003811115612996577f4e487b7100000000000000000000000000000000000000000000000000000000600052602160045260246000fd5b1480156129d2575060008160050160008360010160089054906101000a900463ffffffff1663ffffffff16815260200190815260200160002054145b915050919050565b606481565b60006129fc600160008481526020019081526020016000206136c9565b9050919050565b612a0d82826136de565b612a32816001600085815260200190815260200160002061350e90919063ffffffff16565b505050565b612a3f611bd5565b15612a7f576040517f08c379a0000000000000000000000000000000000000000000000000000000008152600401612a7690614d36565b60405180910390fd5b612a9e3373ffffffffffffffffffffffffffffffffffffffff1661344f565b15612ade576040517f08c379a0000000000000000000000000000000000000000000000000000000008152600401612ad590614db6565b60405180910390fd5b3273ffffffffffffffffffffffffffffffffffffffff163373ffffffffffffffffffffffffffffffffffffffff1614612b4c576040517f08c379a0000000000000000000000000000000000000000000000000000000008152600401612b4390614ed6565b60405180910390fd5b816001806003811115612b88577f4e487b7100000000000000000000000000000000000000000000000000000000600052602160045260246000fd5b60046000848152602001908152602001600020600101600d9054906101000a900460ff166003811115612be4577f4e487b7100000000000000000000000000000000000000000000000000000000600052602160045260246000fd5b14612c24576040517f08c379a0000000000000000000000000000000000000000000000000000000008152600401612c1b90614cb6565b60405180910390fd5b838363ffffffff16600954341015612c71576040517f08c379a0000000000000000000000000000000000000000000000000000000008152600401612c6890614eb6565b60405180910390fd5b60006004600084815260200190815260200160002090506000600660008581526020019081526020016000206000612ca7613405565b73ffffffffffffffffffffffffffffffffffffffff1673ffffffffffffffffffffffffffffffffffffffff168152602001908152602001600020905042826002015411612d29576040517f08c379a0000000000000000000000000000000000000000000000000000000008152600401612d2090614e36565b60405180910390fd5b8160010160009054906101000a900463ffffffff1663ffffffff16831015612d86576040517f08c379a0000000000000000000000000000000000000000000000000000000008152600401612d7d90614e76565b60405180910390fd5b6000612db58360010160049054906101000a900463ffffffff1663ffffffff168561370790919063ffffffff16565b14612df5576040517f08c379a0000000000000000000000000000000000000000000000000000000008152600401612dec90614cf6565b60405180910390fd5b6000816001015414612e3c576040517f08c379a0000000000000000000000000000000000000000000000000000000008152600401612e3390614e56565b60405180910390fd5b6000600660008a81526020019081526020016000206000612e5b613405565b73ffffffffffffffffffffffffffffffffffffffff1673ffffffffffffffffffffffffffffffffffffffff1681526020019081526020016000209050878160000160016101000a81548163ffffffff021916908363ffffffff1602179055503481600101819055506000600460008b81526020019081526020016000209050612ef134826003015461353e90919063ffffffff16565b8160030181905550612f27348260050160008c63ffffffff1681526020019081526020016000205461353e90919063ffffffff16565b8160050160008b63ffffffff16815260200190815260200160002081905550612f9e8a60076000612f56613405565b73ffffffffffffffffffffffffffffffffffffffff1673ffffffffffffffffffffffffffffffffffffffff16815260200190815260200160002061371d90919063ffffffff16565b50612fa7613405565b73ffffffffffffffffffffffffffffffffffffffff168a7f74a1592512d62a2ed63741c3d6c0914cf996d7f1780d0ccdb7d792fd2d5259138b34604051612fef929190614f71565b60405180910390a350505050505050505050565b606060008061304f600760008873ffffffffffffffffffffffffffffffffffffffff1673ffffffffffffffffffffffffffffffffffffffff168152602001908152602001600020613737565b9050600084905085826130629190615142565b8511156130785785826130759190615142565b90505b60008167ffffffffffffffff8111156130ba577f4e487b7100000000000000000000000000000000000000000000000000000000600052604160045260246000fd5b6040519080825280602002602001820160405280156130e85781602001602082028036833780820191505090505b50905060005b828110156131aa5761315281896131059190615061565b600760008c73ffffffffffffffffffffffffffffffffffffffff1673ffffffffffffffffffffffffffffffffffffffff16815260200190815260200160002061374c90919063ffffffff16565b82828151811061318b577f4e487b7100000000000000000000000000000000000000000000000000000000600052603260045260246000fd5b60200260200101818152505080806131a2906152f9565b9150506130ee565b508082886131b89190615061565b94509450505050935093915050565b6131cf613405565b73ffffffffffffffffffffffffffffffffffffffff16600260019054906101000a900473ffffffffffffffffffffffffffffffffffffffff1673ffffffffffffffffffffffffffffffffffffffff161461325e576040517f08c379a000000000000000000000000000000000000000000000000000000000815260040161325590614f16565b60405180910390fd5b605a8160ff16101580156132795750606460ff168160ff1611155b6132b8576040517f08c379a00000000000000000000000000000000000000000000000000000000081526004016132af90614d56565b60405180910390fd5b80600860006101000a81548160ff021916908360ff1602179055506132f060016132e2600561337d565b61353e90919063ffffffff16565b7febd1601b294d34df68b55c9158c98be467c29b506f77bf833690ca92bae5557e600860009054906101000a900460ff1660405161332e9190614fd1565b60405180910390a250565b60095481565b6133498282613766565b5050565b6000613375836000018373ffffffffffffffffffffffffffffffffffffffff1660001b613846565b905092915050565b600081600001549050919050565b60007f7965db0b000000000000000000000000000000000000000000000000000000007bffffffffffffffffffffffffffffffffffffffffffffffffffffffff1916827bffffffffffffffffffffffffffffffffffffffffffffffffffffffff191614806133fe57506133fd826138b6565b5b9050919050565b600033905090565b6000818361341b9190615142565b905092915050565b6000818361343191906150e8565b905092915050565b6000818361344791906150b7565b905092915050565b600080823b905060008111915050919050565b61346b82610e21565b61347c81613477613405565b613920565b6134868383613766565b505050565b613493613405565b73ffffffffffffffffffffffffffffffffffffffff168173ffffffffffffffffffffffffffffffffffffffff1614613500576040517f08c379a00000000000000000000000000000000000000000000000000000000081526004016134f790614f36565b60405180910390fd5b61350a82826139bd565b5050565b6000613536836000018373ffffffffffffffffffffffffffffffffffffffff1660001b613a9e565b905092915050565b6000818361354c9190615061565b905092915050565b6001816000016000828254019250508190555050565b613572611bd5565b6135b1576040517f08c379a00000000000000000000000000000000000000000000000000000000081526004016135a890614c56565b60405180910390fd5b6000600260006101000a81548160ff0219169083151502179055507f5db9ee0a495bf2e6ff9c91a7834c1ba4fdd244a5e8aa4e537bd38aeae4b073aa6135f5613405565b6040516136029190614a25565b60405180910390a1565b613614611bd5565b15613654576040517f08c379a000000000000000000000000000000000000000000000000000000000815260040161364b90614d36565b60405180910390fd5b6001600260006101000a81548160ff0219169083151502179055507f62e78cea01bee320cd4e420270b5ea74000d11b0c9f74754ebdbfc544b05a258613698613405565b6040516136a59190614a25565b60405180910390a1565b60006136be8360000183613c24565b60001c905092915050565b60006136d782600001613c75565b9050919050565b6136e782610e21565b6136f8816136f3613405565b613920565b61370283836139bd565b505050565b600081836137159190615342565b905092915050565b600061372f836000018360001b613846565b905092915050565b600061374582600001613c75565b9050919050565b600061375b8360000183613c24565b60001c905092915050565b613770828261260e565b61384257600160008084815260200190815260200160002060000160008373ffffffffffffffffffffffffffffffffffffffff1673ffffffffffffffffffffffffffffffffffffffff16815260200190815260200160002060006101000a81548160ff0219169083151502179055506137e7613405565b73ffffffffffffffffffffffffffffffffffffffff168173ffffffffffffffffffffffffffffffffffffffff16837f2f8788117e7eff1d82e926ec794901d17c78024a50270940304540a733656f0d60405160405180910390a45b5050565b60006138528383613c86565b6138ab5782600001829080600181540180825580915050600190039060005260206000200160009091909190915055826000018054905083600101600084815260200190815260200160002081905550600190506138b0565b600090505b92915050565b60007f01ffc9a7000000000000000000000000000000000000000000000000000000007bffffffffffffffffffffffffffffffffffffffffffffffffffffffff1916827bffffffffffffffffffffffffffffffffffffffffffffffffffffffff1916149050919050565b61392a828261260e565b6139b95761394f8173ffffffffffffffffffffffffffffffffffffffff166014613ca9565b61395d8360001c6020613ca9565b60405160200161396e9291906149eb565b6040516020818303038152906040526040517f08c379a00000000000000000000000000000000000000000000000000000000081526004016139b09190614aa6565b60405180910390fd5b5050565b6139c7828261260e565b15613a9a57600080600084815260200190815260200160002060000160008373ffffffffffffffffffffffffffffffffffffffff1673ffffffffffffffffffffffffffffffffffffffff16815260200190815260200160002060006101000a81548160ff021916908315150217905550613a3f613405565b73ffffffffffffffffffffffffffffffffffffffff168173ffffffffffffffffffffffffffffffffffffffff16837ff6391f5c32d9c69d2a47ea670b442974b53935d1edc7fd64eb21e047a839171b60405160405180910390a45b5050565b60008083600101600084815260200190815260200160002054905060008114613c18576000600182613ad09190615142565b9050600060018660000180549050613ae89190615142565b9050818114613ba3576000866000018281548110613b2f577f4e487b7100000000000000000000000000000000000000000000000000000000600052603260045260246000fd5b9060005260206000200154905080876000018481548110613b79577f4e487b7100000000000000000000000000000000000000000000000000000000600052603260045260246000fd5b90600052602060002001819055508387600101600083815260200190815260200160002081905550505b85600001805480613bdd577f4e487b7100000000000000000000000000000000000000000000000000000000600052603160045260246000fd5b600190038181906000526020600020016000905590558560010160008681526020019081526020016000206000905560019350505050613c1e565b60009150505b92915050565b6000826000018281548110613c62577f4e487b7100000000000000000000000000000000000000000000000000000000600052603260045260246000fd5b9060005260206000200154905092915050565b600081600001805490509050919050565b600080836001016000848152602001908152602001600020541415905092915050565b606060006002836002613cbc91906150e8565b613cc69190615061565b67ffffffffffffffff811115613d05577f4e487b7100000000000000000000000000000000000000000000000000000000600052604160045260246000fd5b6040519080825280601f01601f191660200182016040528015613d375781602001600182028036833780820191505090505b5090507f300000000000000000000000000000000000000000000000000000000000000081600081518110613d95577f4e487b7100000000000000000000000000000000000000000000000000000000600052603260045260246000fd5b60200101907effffffffffffffffffffffffffffffffffffffffffffffffffffffffffffff1916908160001a9053507f780000000000000000000000000000000000000000000000000000000000000081600181518110613e1f577f4e487b7100000000000000000000000000000000000000000000000000000000600052603260045260246000fd5b60200101907effffffffffffffffffffffffffffffffffffffffffffffffffffffffffffff1916908160001a90535060006001846002613e5f91906150e8565b613e699190615061565b90505b6001811115613f55577f3031323334353637383961626364656600000000000000000000000000000000600f861660108110613ed1577f4e487b7100000000000000000000000000000000000000000000000000000000600052603260045260246000fd5b1a60f81b828281518110613f0e577f4e487b7100000000000000000000000000000000000000000000000000000000600052603260045260246000fd5b60200101907effffffffffffffffffffffffffffffffffffffffffffffffffffffffffffff1916908160001a905350600485901c945080613f4e9061529d565b9050613e6c565b5060008414613f99576040517f08c379a0000000000000000000000000000000000000000000000000000000008152600401613f9090614bf6565b60405180910390fd5b8091505092915050565b828054613faf906152c7565b90600052602060002090601f016020900481019282613fd15760008555614018565b82601f10613fea57803560ff1916838001178555614018565b82800160010185558215614018579182015b82811115614017578235825591602001919060010190613ffc565b5b5090506140259190614029565b5090565b5b8082111561404257600081600090555060010161402a565b5090565b60008135905061405581615a55565b92915050565b60008135905061406a81615a6c565b92915050565b60008135905061407f81615a83565b92915050565b60008083601f84011261409757600080fd5b8235905067ffffffffffffffff8111156140b057600080fd5b6020830191508360018202830111156140c857600080fd5b9250929050565b6000813590506140de81615a9a565b92915050565b6000813590506140f381615ab1565b92915050565b60008135905061410881615ac8565b92915050565b60006020828403121561412057600080fd5b600061412e84828501614046565b91505092915050565b60008060006060848603121561414c57600080fd5b600061415a86828701614046565b935050602061416b868287016140cf565b925050604061417c868287016140cf565b9150509250925092565b60006020828403121561419857600080fd5b60006141a68482850161405b565b91505092915050565b600080604083850312156141c257600080fd5b60006141d08582860161405b565b92505060206141e185828601614046565b9150509250929050565b600080604083850312156141fe57600080fd5b600061420c8582860161405b565b925050602061421d858286016140cf565b9150509250929050565b60006020828403121561423957600080fd5b600061424784828501614070565b91505092915050565b60008060008060006080868803121561426857600080fd5b600086013567ffffffffffffffff81111561428257600080fd5b61428e88828901614085565b955095505060206142a1888289016140e4565b93505060406142b2888289016140e4565b92505060606142c3888289016140cf565b9150509295509295909350565b6000602082840312156142e257600080fd5b60006142f0848285016140cf565b91505092915050565b6000806040838503121561430c57600080fd5b600061431a858286016140cf565b925050602061432b85828601614046565b9150509250929050565b6000806040838503121561434857600080fd5b6000614356858286016140cf565b9250506020614367858286016140cf565b9150509250929050565b6000806040838503121561438457600080fd5b6000614392858286016140cf565b92505060206143a3858286016140e4565b9150509250929050565b6000602082840312156143bf57600080fd5b60006143cd848285016140f9565b91505092915050565b60006143e283836149af565b60208301905092915050565b6143f7816151aa565b82525050565b600061440882615011565b6144128185615034565b935061441d83614fec565b8060005b8381101561444e57815161443588826143d6565b975061444083615027565b925050600181019050614421565b5085935050505092915050565b614464816151bc565b82525050565b614473816151c8565b82525050565b61448281615258565b82525050565b60006144938261501c565b61449d8185615045565b93506144ad81856020860161526a565b6144b68161542f565b840191505092915050565b60006144cc8261501c565b6144d68185615056565b93506144e681856020860161526a565b80840191505092915050565b600081546144ff816152c7565b6145098186615045565b94506001821660008114614524576001811461453657614569565b60ff1983168652602086019350614569565b61453f85614ffc565b60005b8381101561456157815481890152600182019150602081019050614542565b808801955050505b50505092915050565b600061457f601d83615045565b915061458a82615440565b602082019050919050565b60006145a2601883615045565b91506145ad82615469565b602082019050919050565b60006145c5602083615045565b91506145d082615492565b602082019050919050565b60006145e8601a83615045565b91506145f3826154bb565b602082019050919050565b600061460b602183615045565b9150614616826154e4565b604082019050919050565b600061462e601483615045565b915061463982615533565b602082019050919050565b6000614651601b83615045565b915061465c8261555c565b602082019050919050565b6000614674601d83615045565b915061467f82615585565b602082019050919050565b6000614697601a83615045565b91506146a2826155ae565b602082019050919050565b60006146ba602b83615045565b91506146c5826155d7565b604082019050919050565b60006146dd602083615045565b91506146e882615626565b602082019050919050565b6000614700602583615045565b915061470b8261564f565b604082019050919050565b6000614723601083615045565b915061472e8261569e565b602082019050919050565b6000614746602283615045565b9150614751826156c7565b604082019050919050565b6000614769601e83615045565b915061477482615716565b602082019050919050565b600061478c601983615045565b91506147978261573f565b602082019050919050565b60006147af601e83615045565b91506147ba82615768565b602082019050919050565b60006147d2601783615045565b91506147dd82615791565b602082019050919050565b60006147f5602083615045565b9150614800826157ba565b602082019050919050565b6000614818601a83615045565b9150614823826157e3565b602082019050919050565b600061483b601983615045565b91506148468261580c565b602082019050919050565b600061485e601c83615045565b915061486982615835565b602082019050919050565b6000614881601783615045565b915061488c8261585e565b602082019050919050565b60006148a4601883615045565b91506148af82615887565b602082019050919050565b60006148c7601c83615045565b91506148d2826158b0565b602082019050919050565b60006148ea602483615045565b91506148f5826158d9565b604082019050919050565b600061490d602683615045565b915061491882615928565b604082019050919050565b6000614930601783615056565b915061493b82615977565b601782019050919050565b6000614953601b83615045565b915061495e826159a0565b602082019050919050565b6000614976601183615056565b9150614981826159c9565b601182019050919050565b6000614999602f83615045565b91506149a4826159f2565b604082019050919050565b6149b881615231565b82525050565b6149c781615231565b82525050565b6149d68161523b565b82525050565b6149e58161524b565b82525050565b60006149f682614923565b9150614a0282856144c1565b9150614a0d82614969565b9150614a1982846144c1565b91508190509392505050565b6000602082019050614a3a60008301846143ee565b92915050565b60006040820190508181036000830152614a5a81856143fd565b9050614a6960208301846149be565b9392505050565b6000602082019050614a85600083018461445b565b92915050565b6000602082019050614aa0600083018461446a565b92915050565b60006020820190508181036000830152614ac08184614488565b905092915050565b6000610120820190508181036000830152614ae3818c614488565b9050614af2602083018b6149cd565b614aff604083018a6149cd565b614b0c60608301896149cd565b614b1960808301886149dc565b614b2660a0830187614479565b614b3360c08301866149be565b614b4060e08301856149be565b614b4e6101008301846149be565b9a9950505050505050505050565b600060a0820190508181036000830152614b7681886144f2565b9050614b8560208301876149cd565b614b9260408301866149cd565b614b9f60608301856149dc565b614bac60808301846149be565b9695505050505050565b60006020820190508181036000830152614bcf81614572565b9050919050565b60006020820190508181036000830152614bef81614595565b9050919050565b60006020820190508181036000830152614c0f816145b8565b9050919050565b60006020820190508181036000830152614c2f816145db565b9050919050565b60006020820190508181036000830152614c4f816145fe565b9050919050565b60006020820190508181036000830152614c6f81614621565b9050919050565b60006020820190508181036000830152614c8f81614644565b9050919050565b60006020820190508181036000830152614caf81614667565b9050919050565b60006020820190508181036000830152614ccf8161468a565b9050919050565b60006020820190508181036000830152614cef816146ad565b9050919050565b60006020820190508181036000830152614d0f816146d0565b9050919050565b60006020820190508181036000830152614d2f816146f3565b9050919050565b60006020820190508181036000830152614d4f81614716565b9050919050565b60006020820190508181036000830152614d6f81614739565b9050919050565b60006020820190508181036000830152614d8f8161475c565b9050919050565b60006020820190508181036000830152614daf8161477f565b9050919050565b60006020820190508181036000830152614dcf816147a2565b9050919050565b60006020820190508181036000830152614def816147c5565b9050919050565b60006020820190508181036000830152614e0f816147e8565b9050919050565b60006020820190508181036000830152614e2f8161480b565b9050919050565b60006020820190508181036000830152614e4f8161482e565b9050919050565b60006020820190508181036000830152614e6f81614851565b9050919050565b60006020820190508181036000830152614e8f81614874565b9050919050565b60006020820190508181036000830152614eaf81614897565b9050919050565b60006020820190508181036000830152614ecf816148ba565b9050919050565b60006020820190508181036000830152614eef816148dd565b9050919050565b60006020820190508181036000830152614f0f81614900565b9050919050565b60006020820190508181036000830152614f2f81614946565b9050919050565b60006020820190508181036000830152614f4f8161498c565b9050919050565b6000602082019050614f6b60008301846149be565b92915050565b6000604082019050614f8660008301856149cd565b614f9360208301846149be565b9392505050565b6000606082019050614faf60008301866149cd565b614fbc60208301856149be565b614fc960408301846149be565b949350505050565b6000602082019050614fe660008301846149dc565b92915050565b6000819050602082019050919050565b60008190508160005260206000209050919050565b600081519050919050565b600081519050919050565b6000602082019050919050565b600082825260208201905092915050565b600082825260208201905092915050565b600081905092915050565b600061506c82615231565b915061507783615231565b9250827fffffffffffffffffffffffffffffffffffffffffffffffffffffffffffffffff038211156150ac576150ab615373565b5b828201905092915050565b60006150c282615231565b91506150cd83615231565b9250826150dd576150dc6153a2565b5b828204905092915050565b60006150f382615231565b91506150fe83615231565b9250817fffffffffffffffffffffffffffffffffffffffffffffffffffffffffffffffff048311821515161561513757615136615373565b5b828202905092915050565b600061514d82615231565b915061515883615231565b92508282101561516b5761516a615373565b5b828203905092915050565b60006151818261524b565b915061518c8361524b565b92508282101561519f5761519e615373565b5b828203905092915050565b60006151b582615211565b9050919050565b60008115159050919050565b6000819050919050565b60007fffffffff0000000000000000000000000000000000000000000000000000000082169050919050565b600081905061520c82615a41565b919050565b600073ffffffffffffffffffffffffffffffffffffffff82169050919050565b6000819050919050565b600063ffffffff82169050919050565b600060ff82169050919050565b6000615263826151fe565b9050919050565b60005b8381101561528857808201518184015260208101905061526d565b83811115615297576000848401525b50505050565b60006152a882615231565b915060008214156152bc576152bb615373565b5b600182039050919050565b600060028204905060018216806152df57607f821691505b602082108114156152f3576152f2615400565b5b50919050565b600061530482615231565b91507fffffffffffffffffffffffffffffffffffffffffffffffffffffffffffffffff82141561533757615336615373565b5b600182019050919050565b600061534d82615231565b915061535883615231565b925082615368576153676153a2565b5b828206905092915050565b7f4e487b7100000000000000000000000000000000000000000000000000000000600052601160045260246000fd5b7f4e487b7100000000000000000000000000000000000000000000000000000000600052601260045260246000fd5b7f4e487b7100000000000000000000000000000000000000000000000000000000600052602160045260246000fd5b7f4e487b7100000000000000000000000000000000000000000000000000000000600052602260045260246000fd5b6000601f19601f8301169050919050565b7f436f756e63696c203a204449445f4e4f545f5041525449434950415445000000600082015250565b7f436f756e63696c203a204d5553545f42455f53434f5245520000000000000000600082015250565b7f537472696e67733a20686578206c656e67746820696e73756666696369656e74600082015250565b7f436f756e63696c203a20414c52454144595f524546554e444544000000000000600082015250565b7f436f756e63696c203a205552495f53484f554c445f4e4f545f42455f454d505460008201527f5900000000000000000000000000000000000000000000000000000000000000602082015250565b7f5061757361626c653a206e6f7420706175736564000000000000000000000000600082015250565b7f436f756e63696c203a20414c52454144595f505245534944454e540000000000600082015250565b7f436f756e63696c203a20444541444c494e455f4e4f545f504153534544000000600082015250565b7f436f756e63696c203a2041545f494e56414c49445f5354414745000000000000600082015250565b7f436f756e63696c203a2053434f52455f4d554c5449504c455f53484f554c445f60008201527f42455f4e4f4e5f5a45524f000000000000000000000000000000000000000000602082015250565b7f436f756e63696c203a20494e56414c49445f53434f52455f4d554c5449504c45600082015250565b7f436f756e63696c203a20444541444c494e455f53484f554c445f42455f4e4f4e60008201527f5f5a45524f000000000000000000000000000000000000000000000000000000602082015250565b7f5061757361626c653a2070617573656400000000000000000000000000000000600082015250565b7f436f756e63696c203a205245574152445f524154455f4f55545f4f465f52414e60008201527f4745000000000000000000000000000000000000000000000000000000000000602082015250565b7f436f756e63696c203a20494e56414c49445f4d494e424554414d4f554e540000600082015250565b7f436f756e63696c203a20524557415244535f434c41494d454400000000000000600082015250565b7f436f756e63696c203a20434f4e54524143545f4e4f545f414c4c4f5745440000600082015250565b7f436f756e63696c203a20554e415554484f5552495a4544000000000000000000600082015250565b7f436f756e63696c203a204e4f545f454c494749424c455f464f525f434c41494d600082015250565b7f436f756e63696c203a20554e4b4e4f574e5f4d415443485f4944000000000000600082015250565b7f436f756e63696c203a20444541444c494e455f50415353454400000000000000600082015250565b7f436f756e63696c203a204245545f504c414345445f414c524541445900000000600082015250565b7f436f756e63696c203a20494e56414c49445f53434f5245000000000000000000600082015250565b7f436f756e63696c203a204d5553545f42455f554d504952450000000000000000600082015250565b7f436f756e63696c203a204245545f414d4f554e545f544f4f5f4c4f5700000000600082015250565b7f436f756e63696c203a2050524f58595f434f4e54524143545f4e4f545f414c4c60008201527f4f57454400000000000000000000000000000000000000000000000000000000602082015250565b7f436f756e63696c203a20494e53554646494349454e545f54524541535552595f60008201527f414d4f554e540000000000000000000000000000000000000000000000000000602082015250565b7f416363657373436f6e74726f6c3a206163636f756e7420000000000000000000600082015250565b7f436f756e63696c203a204d5553545f42455f505245534944454e540000000000600082015250565b7f206973206d697373696e6720726f6c6520000000000000000000000000000000600082015250565b7f416363657373436f6e74726f6c3a2063616e206f6e6c792072656e6f756e636560008201527f20726f6c657320666f722073656c660000000000000000000000000000000000602082015250565b60048110615a5257615a516153d1565b5b50565b615a5e816151aa565b8114615a6957600080fd5b50565b615a75816151c8565b8114615a8057600080fd5b50565b615a8c816151d2565b8114615a9757600080fd5b50565b615aa381615231565b8114615aae57600080fd5b50565b615aba8161523b565b8114615ac557600080fd5b50565b615ad18161524b565b8114615adc57600080fd5b5056fea26469706673582212200b0524068f01a0e2554ce935768533016368cb2bb79829e443ee80c0533bd35864736f6c63430008040033",
  "immutableReferences": {},
  "source": "// SPDX-License-Identifier: MIT\npragma solidity ^0.8.4;\n\nimport \"@openzeppelin/contracts/utils/Context.sol\";\nimport \"@openzeppelin/contracts/access/AccessControlEnumerable.sol\";\nimport \"@openzeppelin/contracts/security/Pausable.sol\";\nimport \"@openzeppelin/contracts/utils/math/SafeMath.sol\";\nimport \"@openzeppelin/contracts/utils/Counters.sol\";\nimport \"@openzeppelin/contracts/utils/structs/EnumerableSet.sol\";\nimport \"./CouncilV1.sol\";\n\ncontract TournamentV1 is CouncilV1{\n    using SafeMath for uint256;\n    using Counters for Counters.Counter;\n    using EnumerableSet for EnumerableSet.UintSet;\n    \n    enum MatchStage{\n        INVALID,\n        CREATED,\n        COMPLETED,\n        FORFEITED\n    }\n\n    struct Match{\n        string uri;\n        uint32 minScore;\n        uint32 scoreMultiple;\n        uint32 winningScore;\n        uint8 rewardRate;\n        MatchStage stage;\n        uint256 deadline;\n        uint256 totalAmount;\n        uint256 rewardAmount;\n        mapping(uint256 => uint256) betsAtScores;\n    }\n\n    struct Bet{\n        bool claimed;\n        uint32 score;\n        uint256 amount;\n    }\n\n    mapping(uint256=>Match) public matches;\n    Counters.Counter private matchCounter;\n\n    mapping(uint256 => mapping(address => Bet)) private ledger;\n    mapping(address => EnumerableSet.UintSet) private userMatches;\n\n    uint8 public constant TOTAL_RATE = 100; \n    uint8 public rewardRate = 90; \n    uint256 public minBetAmount = 0.01 ether;\n\n    uint256 public treasuryAmount;\n\n    event MatchCreated(uint256 indexed matchId, address indexed umpire, string uri, uint32 minScore, uint32 scoreMultiple, uint8 rewardRate, uint256 deadline);\n    event DeadlineUpdated(uint256 indexed matchId, address indexed umpire, uint256 deadline);\n    event MatchForfeited(uint256 indexed matchId, address indexed umpire);\n    event MatchCompleted(uint256 indexed matchId, address indexed umpire, uint32 winningScore, uint256 rewardAmount, uint256 treasuryAmount);\n    event BetScore(uint256 indexed matchId, address indexed sender, uint32 score, uint256 amount);\n    event Claim(uint256 indexed matchId, address indexed sender, uint256 amount);\n    event Refund(uint256 indexed matchId, address indexed sender, uint256 amount);\n    event ClaimTreasury(uint256 amount);\n    event RewardRateUpdated(uint256 indexed matchId, uint8 rewardRate);\n    event MinimumBetAmountUpdated(uint256 minBetAmount);\n\n    constructor(address _president) \n    CouncilV1(_president)\n    {}\n    \n    function createMatch(string calldata _uri,uint32 _minScore,uint32 _scoreMultiple,uint256 _deadline) \n    external onlyUmpire returns(uint256) {\n        \n        require(bytes(_uri).length>0,\"Council : URI_SHOULD_NOT_BE_EMPTY\");\n        require(_scoreMultiple>0,\"Council : SCORE_MULTIPLE_SHOULD_BE_NON_ZERO\");\n        require(_deadline>0,\"Council : DEADLINE_SHOULD_BE_NON_ZERO\");\n\n        matchCounter.increment();\n        uint256 matchId = matchCounter.current();\n        Match storage m = matches[matchId];\n        m.uri = _uri;\n        m.minScore = _minScore;\n        m.scoreMultiple = _scoreMultiple;\n        m.deadline = block.timestamp+_deadline;\n        m.stage = MatchStage.CREATED;\n        m.rewardRate = rewardRate;\n        emit MatchCreated(matchId, _msgSender(), m.uri, m.minScore, m.scoreMultiple, m.rewardRate, m.deadline);\n        return matchId;\n    }\n\n    function updateDeadline(uint256 _matchId,uint256 _deadline) \n    external onlyUmpire atStage(_matchId,MatchStage.CREATED) {\n        Match storage m = matches[_matchId];\n        m.deadline = block.timestamp+_deadline;\n        emit DeadlineUpdated(_matchId, _msgSender(), m.deadline);\n    }\n\n    function forfeitMatch(uint256 _matchId) \n    external onlyUmpire atStage(_matchId,MatchStage.CREATED) {\n        matches[_matchId].stage = MatchStage.FORFEITED;\n        emit MatchForfeited(_matchId, _msgSender());\n    }\n\n    function endMatch(uint256 _matchId,uint32 _winningScore) \n    external onlyScorer atStage(_matchId,MatchStage.CREATED) \n    {\n        require(_winningScore>0,\"Council : INVALID_SCORE\");\n        Match storage m = matches[_matchId];\n        require(block.timestamp > m.deadline, \"Council : DEADLINE_NOT_PASSED\");\n        m.winningScore = _winningScore;\n        m.stage = MatchStage.COMPLETED;\n        uint256 treasuryAmt=0;\n        if(isHouseWin(_matchId)){\n            treasuryAmt = m.totalAmount;\n        }else{\n            uint256 rewards = m.totalAmount.sub(m.betsAtScores[_winningScore]);\n            m.rewardAmount = rewards.mul(m.rewardRate).div(TOTAL_RATE);\n            treasuryAmt = rewards.mul(TOTAL_RATE-m.rewardRate).div(TOTAL_RATE);\n        }\n        treasuryAmount = treasuryAmount.add(treasuryAmt);\n        emit MatchCompleted(_matchId, _msgSender(), _winningScore, m.rewardAmount, treasuryAmt);\n    }\n\n    function betScore(uint256 _matchId,uint32 _score) \n    external \n    payable\n    whenNotPaused \n    notContract \n    atStage(_matchId,MatchStage.CREATED) \n    validBet(_matchId,_score) \n    {\n        Bet storage b = ledger[_matchId][_msgSender()];\n        b.score = _score;\n        b.amount = msg.value;\n        \n        Match storage m = matches[_matchId];\n        m.totalAmount = m.totalAmount.add(msg.value);\n        m.betsAtScores[_score] = m.betsAtScores[_score].add(msg.value);\n\n        userMatches[_msgSender()].add(_matchId);\n\n        emit BetScore(_matchId, _msgSender(), _score, msg.value);\n    }\n\n    function claim(uint256 _matchId) external notContract validMatchId(_matchId) atStage(_matchId,MatchStage.COMPLETED){  \n        Bet storage b = ledger[_matchId][_msgSender()];\n        require(!b.claimed, \"Council : REWARDS_CLAIMED\");\n        require(claimable(_matchId, _msgSender()), \"Council : NOT_ELIGIBLE_FOR_CLAIM\");\n        Match storage m = matches[_matchId];\n        uint256 claimedAmount = b.amount.add(b.amount.mul(m.rewardAmount).div(m.betsAtScores[m.winningScore]));\n        b.claimed = true;\n        payable(_msgSender()).transfer(claimedAmount);\n        emit Claim(_matchId, _msgSender(), claimedAmount);\n    }\n\n    function claimable(uint256 _matchId,address _user) public view returns(bool) {\n        Match storage m = matches[_matchId];\n        Bet storage b = ledger[_matchId][_user];\n        return b.amount>0 && b.score == m.winningScore;\n    }\n\n    function getRewardMultiplier(uint256 _matchId,uint32 _score) public view validMatchId(_matchId) returns(uint256) {\n        Match storage m = matches[_matchId];\n        uint256 rewards = m.totalAmount.sub(m.betsAtScores[_score]);\n        uint256 rewardAmount = rewards.mul(m.rewardRate).div(TOTAL_RATE);\n        return rewardAmount.mul(10000).div(m.betsAtScores[_score]);\n    }\n    \n    /**\n     * @notice House wins when no participant had bet on the final score\n     */\n    function isHouseWin(uint256 _matchId) public view returns(bool){\n        Match storage m = matches[_matchId];\n        return m.stage==MatchStage.COMPLETED && m.betsAtScores[m.winningScore]==0;\n    }\n\n    function refund(uint256 _matchId) external notContract validMatchId(_matchId) atStage(_matchId,MatchStage.FORFEITED){  \n        Bet storage b = ledger[_matchId][_msgSender()];\n        require(b.amount>0, \"Council : DID_NOT_PARTICIPATE\");\n        require(!b.claimed, \"Council : ALREADY_REFUNDED\");\n        b.claimed=true;\n        payable(_msgSender()).transfer(b.amount);\n        emit Refund(_matchId, _msgSender(), b.amount);\n    }\n\n    function getMatchCount() external view returns(uint){\n        return matchCounter.current();\n    }\n\n    function getBetsAtScore(uint256 _matchId,uint256 _score) external view returns (uint256){\n        return matches[_matchId].betsAtScores[_score];\n    }\n\n    function isDeadlinePassed(uint256 _matchId) external validMatchId(_matchId) view returns(bool) {\n        return block.timestamp>matches[_matchId].deadline;\n    }\n\n    function getUserMatches(address _user,uint256 _cursor,uint256 _size) external view returns (uint256[] memory, uint256) {\n        uint256 numOfMatches = userMatches[_user].length();\n        uint256 length = _size;\n        if (_size > numOfMatches - _cursor) {\n            length = numOfMatches - _cursor;\n        }\n        uint256[] memory matchIds = new uint256[](length);\n        for (uint256 i = 0; i < length; i++) {\n            matchIds[i] = userMatches[_user].at(_cursor + i);\n        }\n        return (matchIds, _cursor + length);\n    }\n\n    function setRewardRate(uint8 _rewardRate) external onlyPresident {\n        require(_rewardRate >= 90 && _rewardRate <= TOTAL_RATE, \"Council : REWARD_RATE_OUT_OF_RANGE\");\n        rewardRate = _rewardRate;\n        emit RewardRateUpdated(matchCounter.current().add(1), rewardRate);\n    }\n\n    function setMinBetAmount(uint256 _minBetAmount) external onlyPresident {\n        require(_minBetAmount>0, \"Council : INVALID_MINBETAMOUNT\");\n        minBetAmount = _minBetAmount;\n        emit MinimumBetAmountUpdated(minBetAmount);\n    }\n\n    function claimTreasury(uint256 _amount) external onlyPresident {\n        require(treasuryAmount>=_amount,\"Council : INSUFFICIENT_TREASURY_AMOUNT\");\n        treasuryAmount = treasuryAmount.sub(_amount);\n        payable(president).transfer(_amount);\n        emit ClaimTreasury(_amount);\n    }\n\n    function pause() external onlyUmpire whenNotPaused {\n        super._pause();\n    }\n\n    function unpause() external onlyUmpire whenPaused {\n        super._unpause();\n    }\n\n    modifier validMatchId(uint256 _matchId){\n        require(_matchId>0 && _matchId<=matchCounter.current(),\"Council : UNKNOWN_MATCH_ID\");\n        _;\n    }\n\n    modifier validBet(uint256 _matchId,uint256 _score){\n        require(msg.value >= minBetAmount, \"Council : BET_AMOUNT_TOO_LOW\");\n        Match storage m = matches[_matchId];\n        Bet storage b = ledger[_matchId][_msgSender()];\n        require(m.deadline > block.timestamp, \"Council : DEADLINE_PASSED\");\n        require(_score >= m.minScore , \"Council : INVALID_SCORE\");\n        require(_score.mod(m.scoreMultiple)==0, \"Council : INVALID_SCORE_MULTIPLE\");\n        require(b.amount==0, \"Council : BET_PLACED_ALREADY\");\n        _;\n    }\n\n    modifier atStage(uint256 _matchId, MatchStage _stage){\n        require(matches[_matchId].stage==_stage,\"Council : AT_INVALID_STAGE\");\n        _;\n    }\n    \n}",
  "sourcePath": "/Users/shrini-3774/Documents/blockchain/crycto/smart-contracts/contracts/prediction/TournamentV1.sol",
  "compiler": {
    "name": "solc",
    "version": "0.8.4+commit.c7e474f2.Emscripten.clang"
  },
  "schemaVersion": "3.3.4",
  "updatedAt": "2021-07-29T10:28:56.581Z",
  "networkType": "ethereum",
  "devdoc": {
    "kind": "dev",
    "methods": {
      "getRoleAdmin(bytes32)": {
        "details": "Returns the admin role that controls `role`. See {grantRole} and {revokeRole}. To change a role's admin, use {_setRoleAdmin}."
      },
      "getRoleMember(bytes32,uint256)": {
        "details": "Returns one of the accounts that have `role`. `index` must be a value between 0 and {getRoleMemberCount}, non-inclusive. Role bearers are not sorted in any particular way, and their ordering may change at any point. WARNING: When using {getRoleMember} and {getRoleMemberCount}, make sure you perform all queries on the same block. See the following https://forum.openzeppelin.com/t/iterating-over-elements-on-enumerableset-in-openzeppelin-contracts/2296[forum post] for more information."
      },
      "getRoleMemberCount(bytes32)": {
        "details": "Returns the number of accounts that have `role`. Can be used together with {getRoleMember} to enumerate all bearers of a role."
      },
      "grantRole(bytes32,address)": {
        "details": "Overload {grantRole} to track enumerable memberships"
      },
      "hasRole(bytes32,address)": {
        "details": "Returns `true` if `account` has been granted `role`."
      },
      "paused()": {
        "details": "Returns true if the contract is paused, and false otherwise."
      },
      "renounceRole(bytes32,address)": {
        "details": "Overload {renounceRole} to track enumerable memberships"
      },
      "revokeRole(bytes32,address)": {
        "details": "Overload {revokeRole} to track enumerable memberships"
      },
      "supportsInterface(bytes4)": {
        "details": "See {IERC165-supportsInterface}."
      }
    },
    "version": 1
  },
  "userdoc": {
    "kind": "user",
    "methods": {
      "isHouseWin(uint256)": {
        "notice": "House wins when no participant had bet on the final score"
      }
    },
    "version": 1
  }
}